:020000040000FA
:04000000CEEF12F03D
:10060000003F065B4F666D7D077F6F777C395E79B3
:1006100071554C44525358414259734F7063616F46
:10062000206C656D62726574653A00416A75737419
:10063000652074656D706F3A004C656D627265740B
:10064000652121002853296D2D2873296D2B002841
:0B0650004129732D285929732B00004D
:10065C000450800B0D6E045004240F6E03AE39EF62
:10066C0003F03BEF03F03CEF03F00F800F50D8B4D6
:10067C0042EF03F044EF03F059EF03F00F28D8A436
:10068C004AEF03F04CEF03F054EF03F0000E016E51
:10069C00000E026E000E036E000E046E038E000E32
:1006AC00046E61EF03F0000E016E000E026E000E80
:1006BC00036E000E046E0850800B0E6E0D500E185B
:1006CC00D8B46BEF03F06DEF03F06EEF03F00D8C0D
:1006DC00085008240E6E07AE76EF03F078EF03F0A7
:1006EC0079EF03F00E800E50D8B47FEF03F081EF5A
:1006FC0003F096EF03F00E28D8A487EF03F089EFF0
:10070C0003F091EF03F0000E056E000E066E000E66
:10071C00076E000E086E078E000E086E9EEF03F03B
:10072C00000E056E000E066E000E076E000E086EB3
:10073C000F500E5CD8B0A5EF03F0A7EF03F0CEEF8F
:10074C0003F00DACACEF03F0AEEF03F0B0EF03F041
:10075C00800E0D1A0FC010F00EC00FF010C00EF06E
:10076C0001C010F005C001F010C005F002C010F07F
:10077C0006C002F010C006F003C010F007C003F072
:10078C0010C007F004C010F008C004F010C008F04E
:10079C00000E106E0F500EC009F00A6A095E000EB2
:1007AC000A5A0ABEE3EF03F00A5009E11A0E095C7B
:1007BC00D8A0E3EF03F0E5EF03F01CEF04F00150D9
:1007CC00021003100410D8A4EEEF03F0F1EF03F0C5
:1007DC00010EF2EF03F0000E106E000E016E000E13
:1007EC00026E000E036E000E046E0EC00FF025EFAD
:1007FC0004F010A004EF04F006EF04F00CEF04F08A
:10080C00D89010300109106E0EEF04F0D890103211
:10081C0001A013EF04F015EF04F016EF04F0108EA6
:10082C00043404320332023201320F2A0E500F5CB0
:10083C00D8A023EF04F025EF04F0FFEF03F00DBC7C
:10084C002AEF04F02CEF04F06CEF04F00F50D8A456
:10085C0032EF04F034EF04F03EEF04F0000E016EC2
:10086C00000E026E000E036E000E046E8DEF05F08E
:10087C00055001260650022207500322085004227C
:10088C0004A04BEF04F04DEF04F0F9EF04F010A0CE
:10089C0052EF04F054EF04F05AEF04F0D8901030FB
:1008AC000109106E5CEF04F0D890103201A061EFDA
:1008BC0004F063EF04F064EF04F0108E043404329F
:1008CC000332023201320F2AF9EF04F00550015CB9
:1008DC0006500258075003580450800A096E0850FD
:1008EC00800A0958D8B07DEF04F07FEF04F0AAEF2E
:1008FC0004F00150055C096E025006580A6E035054
:10090C0007580B6E045008580C6EFF0E0924016E2C
:10091C00FF0E0A20026EFF0E0B20036EFF0E0C2042
:10092C00046E800E0D1A106C1050D8A4A0EF04F0B9
:10093C00A2EF04F0B2EF04F0010E0126000E022229
:10094C0003220422B2EF04F00550015E0650025A55
:10095C000750035A0850045A015002100310041097
:10096C00D8A4BBEF04F0BDEF04F0F2EF04F010508C
:10097C00D8A4C3EF04F0C5EF04F0F2EF04F0000EBE
:10098C00016E000E026E000E036E000E046E8DEFF3
:10099C0005F0D890013602360336043610AED9EF86
:1009AC0004F0DBEF04F0DCEF04F0018010A0E1EFC9
:1009BC0004F0E3EF04F0E7EF04F0D8801036E9EF31
:1009CC0004F0D89010360F50D8B4EFEF04F0F1EFDC
:1009DC0004F0F2EF04F00F0603AEF7EF04F0F9EFBA
:1009EC0004F0CFEF04F0000E0E6E10AE00EF05F029
:1009FC0002EF05F01AEF05F010C009F07F0E091692
:100A0C00D8B40BEF05F00DEF05F011EF05F0010E6A
:100A1C000E6E1AEF05F001A016EF05F018EF05F0B9
:100A2C001AEF05F00DEF05F00E50D8B420EF05F0DD
:100A3C0022EF05F04DEF05F0010E0126000E02220B
:100A4C000322042204A02DEF05F02FEF05F04DEF4B
:100A5C0005F001C009F002C00AF003C00BF004C09D
:100A6C000CF00C340C320B320A32093209C001F092
:100A7C000AC002F00BC003F00CC004F00F28D8B46D
:100A8C004AEF05F04CEF05F04DEF05F00F2A0F285B
:100A9C00D8B453EF05F055EF05F05DEF05F00F50AE
:100AAC00D8A45BEF05F05DEF05F06FEF05F0000EDD
:100ABC00016E000E026E000E036E000E046E0F50DF
:100ACC00D8A46BEF05F06DEF05F06FEF05F0000E9D
:100ADC000D6E0FA074EF05F076EF05F079EF05F0D1
:100AEC00038E7AEF05F0039ED8900F30046E0DAE96
:100AFC0082EF05F084EF05F085EF05F0048E01C060
:100B0C0001F002C002F003C003F004C004F01200B4
:100B1C00000E1E6E100E1D6E000E196E000E1A6E5B
:100B2C00000E1B6E000E1C6E800E8CEC13F02B0E48
:100B3C000F6E060E106EAAEC10F0F40E59EC11F0BC
:100B4C00010E8CEC13F0440E0F6E060E106EAAEC18
:100B5C0010F0C00E8CEC13F04F0E0F6E060E106ED4
:100B6C00AAEC10F0E80E59EC11F0010E8CEC13F01D
:100B7C00000E186E000E176E000E106E010E0F6E2A
:100B8C00000E126E000E116EB1EC12F0600E056EBE
:100B9C00EA0E066E000E076E000E086E19C001F00C
:100BAC001AC002F01BC003F01CC004F0C8EC0FF01C
:100BBC0001C00EF002C00FF003C010F004C011F021
:100BCC00060E126E000E136E000E146E000E156ED5
:100BDC0066EC10F00E50300F7DEC13F0700E056EBD
:100BEC00170E066E000E076E000E086E19C001F08F
:100BFC001AC002F01BC003F01CC004F0C8EC0FF0CC
:100C0C0001C00EF002C00FF003C010F004C011F0D0
:100C1C000A0E126E000E136E000E146E000E156E80
:100C2C0066EC10F00E50300F7DEC13F03A0E7DECAC
:100C3C0013F0E80E056E030E066E000E076E000E26
:100C4C00086E19C001F01AC002F01BC003F01CC0E2
:100C5C0004F0C8EC0FF001C00EF002C00FF003C09E
:100C6C0010F004C011F0060E126E000E136E000E82
:100C7C00146E000E156E66EC10F00E50300F7DECFD
:100C8C0013F0640E056E000E066E000E076E000E5D
:100C9C00086E19C001F01AC002F01BC003F01CC092
:100CAC0004F0C8EC0FF001C00EF002C00FF003C04E
:100CBC0010F004C011F00A0E126E000E136E000E2E
:100CCC00146E000E156E66EC10F00E50300F7DECAD
:100CDC0013F07CEC0CF0A8EC13F01D50011809E19A
:100CEC001E500218D8B47DEF06F07FEF06F0D4EF5B
:100CFC0006F0A8EC13F001C01DF002C01EF01DA8F8
:100D0C008AEF06F08CEF06F09AEF06F0700E195E83
:100D1C00170E1A5A000E1B5A000E1C5A3C0E5D5E22
:100D2C00000E5E5A5F5A605A1EA29FEF06F0A1EFAA
:100D3C0006F0AFEF06F0700E1926170E1A22000EF1
:100D4C001B22000E1C223C0E5D26000E5E225F2232
:100D5C0060221EA0B4EF06F0B6EF06F0C1EF06F06D
:100D6C00640E195E000E1A5A1B5A1C5A5D06000EB0
:100D7C005E5A5F5A605A1DACC6EF06F0C8EF06F01B
:100D8C00D4EF06F0640E1926000E1A221B221C2228
:100D9C00010E5D26000E5E225F226022174A182A81
:100DAC0018BEE2EF06F0185009E1320E175CD8A01D
:100DBC00E2EF06F0E4EF06F0C2EF05F0010E8CEC6A
:100DCC0013F0120002BEF6EF06F0025007E1080E17
:100DDC00015CD8B0F4EF06F0F6EF06F020EF07F068
:100DEC0003500410D8B4FDEF06F0FFEF06F00FEF40
:100DFC0007F001C005F0010E066E052A08EF07F09A
:100E0C00D8900636052E06EF07F0065092120EEF1C
:100E1C0008F001C005F0010E066E052A18EF07F068
:100E2C00D8900636052E16EF07F00650FF0A9216DC
:100E3C000EEF08F002BE2EEF07F0025007E1100E85
:100E4C00015CD8B02CEF07F02EEF07F05CEF07F049
:100E5C0003500410D8B435EF07F037EF07F049EF23
:100E6C0007F001C005F0F80E0526010E066E052AE6
:100E7C0042EF07F0D8900636052E40EF07F00650EB
:100E8C0093120EEF08F001C005F0F80E0526010EC6
:100E9C00066E052A54EF07F0D8900636052E52EF51
:100EAC0007F00650FF0A93160EEF08F002BE6AEF29
:100EBC0007F0025007E1180E015CD8B068EF07F09C
:100ECC006AEF07F098EF07F003500410D8B471EFF5
:100EDC0007F073EF07F085EF07F001C005F0F00E97
:100EEC000526010E066E052A7EEF07F0D890063611
:100EFC00052E7CEF07F0065094120EEF08F001C09F
:100F0C0005F0F00E0526010E066E052A90EF07F08F
:100F1C00D8900636052E8EEF07F00650FF0A941671
:100F2C000EEF08F002BEA6EF07F0025007E1200E0C
:100F3C00015CD8B0A4EF07F0A6EF07F0D4EF07F0F0
:100F4C0003500410D8B4ADEF07F0AFEF07F0C1EFCA
:100F5C0007F001C005F0E80E0526010E066E052A05
:100F6C00BAEF07F0D8900636052EB8EF07F006500A
:100F7C0095120EEF08F001C005F0E80E0526010EE3
:100F8C00066E052ACCEF07F0D8900636052ECAEF70
:100F9C0007F00650FF0A95160EEF08F002BEE2EFBE
:100FAC0007F0025007E1280E015CD8B0E0EF07F023
:100FBC00E2EF07F00EEF08F003500410D8B4E9EF9D
:100FCC0007F0EBEF07F0FDEF07F001C005F0E00EC6
:100FDC000526010E066E052AF6EF07F0D8900636A8
:100FEC00052EF4EF07F0065096120EEF08F001C034
:100FFC0005F0E00E0526010E066E052A08EF08F036
:10100C00D8900636052E06EF08F00650FF0A961605
:10101C00120002BE1DEF08F0025007E1080E015C41
:10102C00D8B01BEF08F01DEF08F047EF08F00350A5
:10103C000410D8B424EF08F026EF08F036EF08F0CF
:10104C0001C005F0010E066E052A2FEF08F0D890AE
:10105C000636052E2DEF08F00650801235EF09F0FC
:10106C0001C005F0010E066E052A3FEF08F0D8907E
:10107C000636052E3DEF08F00650FF0A801635EFB8
:10108C0009F002BE55EF08F0025007E1100E015CAA
:10109C00D8B053EF08F055EF08F083EF08F0F80ED6
:1010AC000126FF0E022203500410D8B460EF08F0A2
:1010BC0062EF08F072EF08F001C005F0010E066E49
:1010CC00052A6BEF08F0D8900636052E69EF08F06C
:1010DC000650811235EF09F001C005F0010E066EC5
:1010EC00052A7BEF08F0D8900636052E79EF08F02C
:1010FC000650FF0A811635EF09F002BE91EF08F099
:10110C00025007E1180E015CD8B08FEF08F091EF98
:10111C0008F0BFEF08F0F00E0126FF0E022203507C
:10112C000410D8B49CEF08F09EEF08F0AEEF08F076
:10113C0001C005F0010E066E052AA7EF08F0D89045
:10114C000636052EA5EF08F00650821235EF09F091
:10115C0001C005F0010E066E052AB7EF08F0D89015
:10116C000636052EB5EF08F00650FF0A821635EF4D
:10117C0009F002BECDEF08F0025007E1200E015C31
:10118C00D8B0CBEF08F0CDEF08F0FBEF08F0E80E8D
:10119C000126FF0E022203500410D8B4D8EF08F039
:1011AC00DAEF08F0EAEF08F001C005F0010E066E68
:1011BC00052AE3EF08F0D8900636052EE1EF08F08B
:1011CC000650831235EF09F001C005F0010E066ED2
:1011DC00052AF3EF08F0D8900636052EF1EF08F04B
:1011EC000650FF0A831635EF09F002BE09EF09F02D
:1011FC00025007E1280E015CD8B007EF09F009EFA7
:10120C0009F035EF09F0E00E0126FF0E0222035023
:10121C000410D8B414EF09F016EF09F026EF09F01A
:10122C0001C005F0010E066E052A1FEF09F0D890DB
:10123C000636052E1DEF09F00650841235EF09F025
:10124C0001C005F0010E066E052A2FEF09F0D890AB
:10125C000636052E2DEF09F00650FF0A84161200F3
:10126C00000E186E000E176E000E206E000E1F6E14
:10127C00000E226E000E216E000E166E000E156E04
:10128C0028EF0AF0000E1B6E000E1C6E000E1D6E79
:10129C00000E1E6E1BC001F01CC002F01DC003F03E
:1012AC001EC004F0000E056E000E066EA00E076E3A
:1012BC00400E086E32EC0EF0D8A067EF09F069EF23
:1012CC0009F06BEF09F09EEF09F01BC001F01CC098
:1012DC0002F01DC003F01EC004F0000E056E000EDF
:1012EC00066E800E076E3F0E086E2EEC03F001C0EA
:1012FC001BF002C01CF003C01DF004C01EF01BC08C
:10130C0001F01CC002F01DC003F01EC004F0000E62
:10131C00056E000E066EA00E076E400E086E32ECC7
:10132C000EF0D8A09CEF09F09EEF09F06BEF09F0DE
:10133C00194A1A2A1ABEACEF09F01A5009E12D0EFF
:10134C00195CD8A0ACEF09F0AEEF09F026EF0AF06B
:10135C00000E1A6E000E196E1F4A202A3C0E1F1822
:10136C002010D8A4BCEF09F0BEEF09F0C4EF09F0CF
:10137C00214A222A000E206E000E1F6E3C0E2118F0
:10138C002210D8A4CCEF09F0CEEF09F0D4EF09F07D
:10139C00000E226E000E216E154A162A030E0F6ED9
:1013AC001FC009F020C00AF0000E0C6E0A0E0B6E66
:1013BC0070EC0FF00950B4EC11F0020E0F6E000E31
:1013CC00046E0A0E036E1FC001F020C002F0B4ECD4
:1013DC000EF001C009F002C00AF0000E0C6E0A0EED
:1013EC000B6E70EC0FF00950B4EC11F0010E0F6E97
:1013FC0021C009F022C00AF0000E0C6E0A0E0B6E12
:10140C0070EC0FF00950B4EC11F0000E0F6E000EE2
:10141C00046E0A0E036E21C001F022C002F0B4EC7F
:10142C000EF001C009F002C00AF0000E0C6E0A0E9C
:10143C000B6E70EC0FF00950B4EC11F0174A182A2F
:10144C0011EC0BF017C011F018C012F0000E12BE08
:10145C00FF0E136E146E5D50115C5E5012585F508F
:10146C00135860501458D8A03EEF0AF040EF0AF021
:10147C0048EF09F01200000E586E100E576E20EE59
:10148C00B0F010EE15F00F0EDBCFE3FFE806FCE238
:10149C0020EEA0F010EE25F00F0EDBCFE3FFE806F8
:1014AC00FCE220EE90F010EE35F00F0EDBCFE3FFF8
:1014BC00E806FCE220EE80F010EE45F00F0EDBCFDC
:1014CC00E3FFE806FCE2800E8CEC13F01B0E0F6EB3
:1014DC00060E106EAAEC10F0F40E59EC11F0010E81
:1014EC008CEC13F0150E0F6E000E106EAAEC10F0B3
:1014FC00C00E8CEC13F0250E0F6E000E106EAAECC5
:10150C0010F0DC0E59EC11F0010E8CEC13F0800E87
:10151C008CEC13F0350E0F6E000E106EAAEC10F062
:10152C00C00E8CEC13F0450E0F6E000E106EAAEC74
:10153C0010F0DC0E59EC11F0010E8CEC13F0000ED7
:10154C00566E000E556E7CEC0CF0A8EC13F0575058
:10155C00011809E158500218D8B4B7EF0AF0B9EFE6
:10156C000AF003EF0BF0A8EC13F001C057F002C027
:10157C0058F057A0C4EF0AF0C6EF0AF0D0EF0AF00B
:10158C006D0E016E000E026E150E036E000E046ED3
:10159C0073EC12F057A4D5EF0AF0D7EF0AF0E1EF95
:1015AC000AF06D0E016E000E026E350E036E000E0B
:1015BC00046E73EC12F057A6E6EF0AF0E8EF0AF0AF
:1015CC00F2EF0AF06D0E016E000E026E450E036E08
:1015DC00000E046E73EC12F057A2F7EF0AF0F9EF5D
:1015EC000AF003EF0BF06D0E016E000E026E250E6D
:1015FC00036E000E046E73EC12F0554A562A5650C8
:10160C0009E11E0E555CD8A00EEF0BF010EF0BF09D
:10161C00A9EF0AF01200000E026E180E016E000EF9
:10162C00046E000E036E0FEC08F0000E026E190E25
:10163C00016E000E046E000E036E0FEC08F0000E2F
:10164C00026E1A0E016E000E046E000E036E0FEC8D
:10165C0008F0000E026E1B0E016E000E046E000EE2
:10166C00036E0FEC08F0000E086E000E076E0BEC0C
:10167C0012F0A9EF0BF0010E6A24F66EF76A060E53
:10168C00F7220800F550076E086A0BEC12F0000EFA
:10169C00026E180E016E000E046E010E036E0FEC3E
:1016AC0008F0010E6B6EC6EF0BF0010E6924F66E9E
:1016BC00F76A060EF7220800F550076E086A0BEC65
:1016CC0012F0000E026E190E016E000E046E010E69
:1016DC00036E0FEC08F0020E6B6EC6EF0BF0010EF2
:1016EC006824F66EF76A060EF7220800F550076EAE
:1016FC00086A0BEC12F0000E026E1A0E016E000E50
:10170C00046E010E036E0FEC08F0030E6B6EC6EF49
:10171C000BF0010E6724F66EF76A060EF72208002E
:10172C00F550076E086A0BEC12F0000E026E1B0EE1
:10173C00016E000E046E010E036E0FEC08F0000E2D
:10174C006B6EC6EF0BF06B500A6E0B6A0B50000AF7
:10175C00D8B4B3EF0BF0A5EF0BF00A50000AD8B4D5
:10176C0041EF0BF0010AD8B45BEF0BF0030AD8B4CD
:10177C0075EF0BF0010AD8B48FEF0BF0A5EF0BF05F
:10178C00120002BED5EF0BF0025007E1080E015C0F
:10179C00D8B0D3EF0BF0D5EF0BF0E9EF0BF001C0A5
:1017AC0003F0010E046E032ADEEF0BF0D890043622
:1017BC00032EDCEF0BF004508014056E0550016E07
:1017CC00026A7BEF0CF002BEF7EF0BF0025007E160
:1017DC00100E015CD8B0F5EF0BF0F7EF0BF00DEF3E
:1017EC000CF001C003F0F80E0326010E046E032A60
:1017FC0002EF0CF0D8900436032E00EF0CF00450DE
:10180C008114056E0550016E026A7BEF0CF002BE6E
:10181C001BEF0CF0025007E1180E015CD8B019EF69
:10182C000CF01BEF0CF031EF0CF001C003F0F00EDC
:10183C000326010E046E032A26EF0CF0D890043612
:10184C00032E24EF0CF004508214056E0550016E2B
:10185C00026A7BEF0CF002BE3FEF0CF0025007E186
:10186C00200E015CD8B03DEF0CF03FEF0CF055EFC3
:10187C000CF001C003F0E80E0326010E046E032ADF
:10188C004AEF0CF0D8900436032E48EF0CF00450BD
:10189C008314056E0550016E026A7BEF0CF002BEDC
:1018AC0063EF0CF0025007E1280E015CD8B061EF39
:1018BC000CF063EF0CF079EF0CF001C003F0E00ECC
:1018CC000326010E046E032A6EEF0CF0D89004363A
:1018DC00032E6CEF0CF004508414056E0550016E51
:1018EC00026A7BEF0CF0016802681200000E646E55
:1018FC00000E636E000E0E6E000E0D6E0EBE90EF9F
:10190C000CF00E5009E1050E0D5CD8A090EF0CF018
:10191C0092EF0CF094EF0CF0F5EF0CF00DC00AF018
:10192C00030E0A26010E0B6E000E0C6E0A2AA2EF95
:10193C000CF0D8900B360C360A2E9FEF0CF00BC027
:10194C0007F00CC008F00BEC12F0000E026E0A0E41
:10195C00016EC7EC0BF001500210D8B4B8EF0CF0CC
:10196C00BAEF0CF0CDEF0CF00DC00AF0010E0B6EBF
:10197C00000E0C6E0A2AC6EF0CF0D8900B360C3603
:10198C000A2EC3EF0CF00B5063120C506412000EB5
:10199C00026E090E016EC7EC0BF001500210D8B4A8
:1019AC00DAEF0CF0DCEF0CF0F1EF0CF00DC00AF0FC
:1019BC00050E0A26010E0B6E000E0C6E0A2AEAEFBB
:1019CC000CF0D8900B360C360A2EE7EF0CF00B50BF
:1019DC0063120C5064120D4A0E2A84EF0CF0635003
:1019EC00611807E164506218D8A4FFEF0CF001EF06
:1019FC000DF004EF0DF06C060AEF0DF0010E6C6E9D
:101A0C0063C061F064C062F06C50D8A410EF0DF0AC
:101A1C0012EF0DF016EF0DF061C065F062C066F0CC
:101A2C001200000E956E000E166E000E156E800ED6
:101A3C008CEC13F0390E0F6E060E106EAAEC10F033
:101A4C0015A02BEF0DF02DEF0DF039EF0DF0C00EB2
:101A5C008CEC13F06D0E0F6E000E106EAAEC10F0E5
:101A6C00800E8CEC13F015C009F016C00AF0000EB5
:101A7C000C6E070E0B6E70EC0FF009040A10D8A454
:101A8C004AEF0DF04CEF0DF04FEF0DF0010E8CEC1A
:101A9C0013F015A054EF0DF056EF0DF057EF0DF0BD
:101AAC00836815B05CEF0DF05EEF0DF060EF0DF09C
:101ABC00000E836E640E23EC11F015B068EF0DF080
:101ACC006AEF0DF06DEF0DF0000E23EC11F0154ADE
:101ADC00162A16BE7BEF0DF0165009E10F0E155CA1
:101AEC00D8A07BEF0DF07DEF0DF01DEF0DF0010E8A
:101AFC008CEC13F0000E23EC11F0000E026E180E9D
:101B0C00016E000E046E000E036E0FEC08F0000E5A
:101B1C00026E190E016E000E046E000E036E0FECB9
:101B2C0008F0000E026E1A0E016E000E046E000E0E
:101B3C00036E0FEC08F0000E026E1B0E016E000E11
:101B4C00046E000E036E0FEC08F01200000E0A6E0D
:101B5C0008BEB5EF0DF0B3EF0DF0BFEF0DF0081EA2
:101B6C00071E061E056C000E062207220822010E17
:101B7C000A6E04BEC6EF0DF0C4EF0DF0D0EF0DF001
:101B8C00041E031E021E016C000E022203220422FC
:101B9C00010E0A1A000E0B6E000E0C6E000E0D6E6E
:101BAC00000E0E6E0550061007100810D8B4E1EFA9
:101BBC000DF0E3EF0DF019EF0EF0010E096EEDEFE5
:101BCC000DF0D8900536063607360836092A08AEC9
:101BDC00F2EF0DF0F4EF0DF0E7EF0DF0D8900B36BF
:101BEC000C360D360E360550015C06500258075067
:101BFC00035808500458D8A006EF0EF008EF0EF06A
:101C0C0011EF0EF00550015E0650025A0750035AB0
:101C1C000850045A0B80D89008320732063205322D
:101C2C00092EF4EF0DF00A50D8B41FEF0EF021EF8F
:101C3C000EF029EF0EF00E1E0D1E0C1E0B6C000E7E
:101C4C000C220D220E220BC001F00CC002F00DC0B4
:101C5C0003F00EC004F01200000E0114096E000E09
:101C6C0002140A6E800E03140B6E7F0E04140C6E9D
:101C7C0009500A100B100C10D8A447EF0EF049EFC6
:101C8C000EF051EF0EF0000E016E000E026E000E03
:101C9C00036E000E046E000E0514096E000E061481
:101CAC000A6E800E07140B6E7F0E08140C6E095012
:101CBC000A100B100C10D8A466EF0EF068EF0EF0A3
:101CCC0070EF0EF0000E056E000E066E000E076E25
:101CDC00000E086E04AE75EF0EF077EF0EF080EF8D
:101CEC000EF0016C021ED8B0022A031ED8B0032AD3
:101CFC00800E045608AE85EF0EF087EF0EF090EFD5
:101D0C000EF0056C061ED8B0062A071ED8B0072A9E
:101D1C00800E0856000E011A000E021A000E031A4D
:101D2C00800E041A000E051A000E061A000E071A71
:101D3C00800E081A0550015C0650025807500358D3
:101D4C0008500458D8B0ADEF0EF0AFEF0EF0B2EF74
:101D5C000EF0D890B3EF0EF0D8801200000E066E85
:101D6C0004BEBDEF0EF0BBEF0EF0C3EF0EF0036C34
:101D7C00041ED8B0042A010E066E02BECAEF0EF085
:101D8C00C8EF0EF0D0EF0EF0016C021ED8B0022A94
:101D9C00010E061A000E086E000E076E035004109A
:101DAC00D8B4DBEF0EF0DDEF0EF005EF0FF0010E07
:101DBC00056EE5EF0EF0D89003360436052A04AE16
:101DCC00EAEF0EF0ECEF0EF0E1EF0EF0D8900736E4
:101DDC0008360350015C04500258D8A0F8EF0EF0FE
:101DEC00FAEF0EF0FFEF0EF00350015E0450025AB2
:101DFC000780D89004320332052EECEF0EF006501B
:101E0C00D8B40BEF0FF00DEF0FF011EF0FF0076CD4
:101E1C00081ED8B0082A07C001F008C002F0120052
:101E2C00000E026E1C0E016E000E046E000E036E90
:101E3C00E8EC06F0000E026E1D0E016E000E046E34
:101E4C00000E036EE8EC06F092EC12F0000E026E3F
:101E5C000F0E016E02EC13F0000E0B6E000E0A6EEC
:101E6C00030E6AEC13F0000E026E050E016E02EC0E
:101E7C0013F0000E0B6E000E0A6E030E6AEC13F0DC
:101E8C00000E026EA00E016EADEC13F0000E0B6E88
:101E9C00000E0A6E030E6AEC13F0000E026EA00E1A
:101EAC00016EADEC13F0000E0B6E000E0A6E020EFE
:101EBC006AEC13F0000E026E0A0E016E02EC13F0C7
:101ECC00280E8CEC13F00C0E8CEC13F0010E8CEC39
:101EDC0013F01200000E0E6E0ABE79EF0FF077EFC2
:101EEC000FF07FEF0FF0096C0A1ED8B00A2A010E12
:101EFC000E6E0CBE86EF0FF084EF0FF08AEF0FF032
:101F0C000B6C0C1ED8B00C2A0B500C10D8B491EFE3
:101F1C000FF093EF0FF0B7EF0FF0010E0D6E9BEF7C
:101F2C000FF0D8900B360C360D2A0CAEA0EF0FF03C
:101F3C00A2EF0FF097EF0FF00B50095C0C500A5802
:101F4C00D8A0ABEF0FF0ADEF0FF0B1EF0FF00B50DF
:101F5C00095E0C500A5AD8900C320B320D2EA2EF9F
:101F6C000FF00E50D8B4BDEF0FF0BFEF0FF0C3EF72
:101F7C000FF0096C0A1ED8B00A2A09C009F00AC071
:101F8C000AF01200000E096E000E0A6E000E0B6EA7
:101F9C00000E0C6E0550061007100810D8B4D9EFBF
:101FAC000FF0DBEF0FF011EF10F0010E0D6EE5EFFF
:101FBC000FF0D89005360636073608360D2A08AECF
:101FCC00EAEF0FF0ECEF0FF0DFEF0FF0D8900936DF
:101FDC000A360B360C360550015C06500258075079
:101FEC00035808500458D8A0FEEF0FF000EF10F083
:101FFC0009EF10F00550015E0650025A0750035AC3
:10200C000850045A0980D89008320732063205323B
:10201C000D2EECEF0FF009C001F00AC002F00BC05E
:10202C0003F00CC004F01200000E5C6E000E5B6E30
:10203C0016EC0FF0E9EC12F09BEC13F0E0EC11F065
:10204C0046EF10F041EC0AF0000E5C6E010E5B6E78
:10205C0046EF10F08EEC05F0000E5C6E020E5B6E1F
:10206C0046EF10F036EC09F0000E5C6E030E5B6E62
:10207C0046EF10F017EC0DF0000E5C6E000E5B6E70
:10208C005BC059F05CC05AF05A50000AD8B451EFFA
:10209C0010F046EF10F05950000AD8B428EF10F0A9
:1020AC00010AD8B430EF10F0030AD8B438EF10F0AE
:1020BC00010AD8B440EF10F046EF10F000EF00F03A
:1020CC001250131014101510D8B46FEF10F071EFEC
:1020DC0010F0A1EF10F0010E166E7BEF10F0D890FF
:1020EC001236133614361536162A15AE80EF10F04C
:1020FC0082EF10F075EF10F012500E5C13500F5869
:10210C001450105815501158D8A08FEF10F091EFB3
:10211C0010F099EF10F012500E5E13500F5A14502D
:10212C00105A1550115AD8901532143213321232EB
:10213C00162E82EF10F00EC00EF00FC00FF010C074
:10214C0010F011C011F01200000E146E000E136E80
:10215C00CAEF10F013500F24116E14501020126E91
:10216C0011C0F6FF12C0F7FFF86A050EF76403D032
:10217C000800F55005D0F6CFE9FFF7CFEAFFEF5096
:10218C007DEC13F0134A142A13500F24116E1450C3
:10219C001020126E11C0F6FF12C0F7FFF86A050E80
:1021AC00F76403D00800F55005D0F6CFE9FFF7CF60
:1021BC00EAFFEF500009D8A4E6EF10F0E8EF10F0BA
:1021CC00B0EF10F01200000E066E000E056E0350FC
:1021DC000410D8B4F4EF10F0F6EF10F01EEF11F07D
:1021EC00010E076EFEEF10F0D89003360436072A66
:1021FC0004AE03EF11F005EF11F0FAEF10F0D890E8
:10220C00053606360350015C04500258D8A011EF75
:10221C0011F013EF11F018EF11F00350015E0450A0
:10222C00025A0580D89004320332072E05EF11F0C4
:10223C0005C001F006C002F012000A6E010ECB249C
:10224C00016E026A000E02220AC003F0046A44EC1A
:10225C0013F001C00BF002C00CF00BC001F00CC06D
:10226C0002F0000E046E190E036EE9EC10F001C0C2
:10227C000BF002C00CF0FF0E0B16030E0C160BC06D
:10228C0008F00CC009F0D89009320832D890093205
:10229C0008320850BB6E0BC008F0030E0816083845
:1022AC00F00BBA121200016E000E026E7DEF11F0EF
:1022BC00000E036E280E036466EF11F068EF11F048
:1022CC006AEF11F07CEF11F0000E046E020E046444
:1022DC0072EF11F074EF11F076EF11F079EF11F05D
:1022EC00042A6CEF11F0032A60EF11F0022A01505E
:1022FC00025CD8A084EF11F086EF11F05EEF11F0C4
:10230C0012000D6E0DC00CF00C3A0F0E0C160C508A
:10231C00076E086A0BEC12F0000E026E1D0E016EB9
:10232C000AC003F00BC004F00FEC08F032EC12F012
:10233C000DC00CF00F0E0C160C50076E086A0BEC4F
:10234C0012F0000E026E1D0E016E0AC003F00BC0DF
:10235C0004F00FEC08F032EC12F01200106E0F507B
:10236C00D8A4BBEF11F0BDEF11F0BFEF11F010C00E
:10237C006AF00F04D8A4C5EF11F0C7EF11F0C9EF44
:10238C0011F010C069F0020E0F18D8A4D0EF11F0A4
:10239C00D2EF11F0D4EF11F010C068F0030E0F184B
:1023AC00D8A4DBEF11F0DDEF11F0DFEF11F010C06E
:1023BC0067F01200000E026E180E016E000E046E15
:1023CC00000E036EE8EC06F0000E026E190E016EA4
:1023DC00000E046E000E036EE8EC06F0000E026EAA
:1023EC001A0E016E000E046E000E036EE8EC06F081
:1023FC00000E026E1B0E016E000E046E000E036EBC
:10240C00E8EC06F092EC12F01200000E026E080ED0
:10241C00016E000E046E000E036E0FEC08F0000E41
:10242C00096E000E026E1E0E016E800E0714036EF6
:10243C00046A0FEC08F02FEC13F0D890073608362E
:10244C00092A070E09642DEF12F02FEF12F017EF87
:10245C0012F01AEC13F01200000E026E1C0E016E3C
:10246C00000E046E010E036E0FEC08F0000E026EEF
:10247C00050E016EADEC13F0000E026E1C0E016E1B
:10248C00000E046E000E036E0FEC08F0000E026ED0
:10249C00050E016EADEC13F0120028522943616D4C
:1024AC00696E68617200000000002844294D657255
:1024BC006361646F000000000000284C294C696DBA
:1024CC007061722063617361000028552945737433
:1024DC007564617200000000000003C005F004C0C8
:1024EC0006F001C007F002C008F005C0D9FF06C015
:1024FC00DAFF054A062A07C0E1FF08C0E2FF074AD7
:10250C00082ADFCFE7FFE750D8A48FEF12F091EF46
:10251C0012F07BEF12F01200000E026E1F0E016E15
:10252C00000E046E000E036EE8EC06F0000E026E58
:10253C00080E016E000E046E000E036EE8EC06F041
:10254C00000E026E1E0E016E000E046E000E036E67
:10255C00E8EC06F012000F501010D8A4B8EF12F0EF
:10256C00BAEF12F0BFEF12F011500F0B800F8CEC82
:10257C0013F00F041010D8A4C6EF12F0C8EF12F02D
:10258C00CDEF12F011500F0BC00F8CEC13F01200AA
:10259C00A60EF66E240EF76E000EF86E00EE80F0AE
:1025AC0010EE40F00900F5CFEEFFE550E150FAE1F6
:1025BC0000EE5DF0200EEE6AE806FDE1000EF86E0E
:1025CC0000011AEF10F092EC12F0000E026E0A0EDF
:1025DC00016E000E046E010E036EE8EC06F0000EA8
:1025EC00026E090E016E000E046E010E036EE8EC15
:1025FC0006F00C0EC16E1200000E056E000E046E7D
:10260C000AEF13F0044A052A0150045C0550800AB5
:10261C00036E0250800A0358D8A017EF13F019EF7D
:10262C0013F008EF13F01200000E026E1F0E016E75
:10263C00000E046E010E036E0FEC08F0000E026E1D
:10264C001F0E016E000E046E000E036E0FEC08F0F0
:10265C001200000E026E080E016E000E046E010ECA
:10266C00036E0FEC08F0000E026E080E016E000EE9
:10267C00046E000E036E0FEC08F012000150030202
:10268C00F3CF05F0F4CF06F001500402F350062608
:10269C0002500302F350062605C001F006C002F0FA
:1026AC001200480E016EE80E026E010E036E000E53
:1026BC00046E0FC005F010C006F0076A086AACEC97
:1026CC000DF00104CB6E12000C6E0CC007F0086A02
:1026DC000BEC12F0000E026E1D0E016E0AC003F020
:1026EC000BC004F00FEC08F032EC12F012000E6E7E
:1026FC00000E0B6E010E0A6E0E5087EC11F0000EE0
:10270C00026E500E016EADEC13F012000E6E000E48
:10271C000B6E000E0A6E0E5087EC11F0000E026E5E
:10272C00020E016E02EC13F012009492030ECA1208
:10273C00CA840C0EBA6E000E106E640E0F6E57EC3F
:10274C0013F0120065C001F066C002F01200120016
:020000040020DA
:08000000FFFFFFFFFFFFFFFF00
:020000040030CA
:0E000000FF027100FF8380FF0FC00FE00F4072
:00000001FF
